:100000000C9473010C9490010C9490010C94900149
:100010000C9490010C9490010C94AB1B0C949001E7
:100020000C9490010C9490010C9490010C9490010C
:100030000C9490010C9490010C9490010C949001FC
:100040000C9490010C94E3020C9490010C94900198
:100050000C949001D201DD013102310231023102F2
:1000600031023102310231023102E201EE01F301CB
:1000700000023102050209023102310213021702A5
:10008000170217021702170217021A023102200282
:1000900031023102310231023102310231023102C8
:1000A000310231022C0231023102310231023102BD
:1000B00031023102310231023102CC01310231020E
:1000C0003102CF01B30EF80EA60FF50F15108B10ED
:1000D000C5104711E310160FE10EAA109C11AA11CA
:1000E000BE1101122A12AE12AE1263121011771253
:1000F0004F12E411AE12AE12290F350FAE1271116C
:1001000091118712AE12D811AE12AE12AE12AE120B
:100110009C118A0FDC0FAE12A612AE12AE12AE12F6
:10012000AE12AE126410AE12AE127D12AE12AE124C
:10013000AE12160FAE12AE12AE12880F2B0B132397
:10014000370B130B13000000060601000020020607
:1001500001040000000001090911110000031F053E
:100160000C0E1D050C040A00000010100101001EF9
:10017000060A3C4B060A1A220004050C0C0100007A
:1001800034040909100409040900000010100101D9
:100190000016050A2940050A111C00000002020190
:1001A00000001703060306000000000009091116ED
:1001B0000000030F060A060A000000000000010B01
:1001C000110001030E02047E9C0204293500000385
:1001D0001314010000270E18040904090E1800006A
:1001E000000A0A0100000D0F190307050A0F180085
:1001F00000000A0A0100000C0104637C0104415262
:100200000206060C0C01000009050C05090000009F
:1002100000050D0D1515000003080307171E030741
:10022000090D0005050F0F010000070B100B100052
:100230000000000107070D0D000001060104637CAA
:10024000010441520104040A0A0100003103090DAE
:100250001703090409283838485801000005030A23
:100260000E18030A040900101C28300101000407BD
:10027000131738071307130C18000C18010100227C
:10028000050D0F1E050D050D0000000F0F010000EC
:1002900003050C0F1E050C040B001015252501018C
:1002A000001C050C1122050C050C000D1A222A0158
:1002B000010002050C1122050C050C0000000000D5
:1002C00001010002050C1122050C050C0010102084
:1002D00020010100010F15070B070B070B0F14007E
:1002E0000F140001000011241FBECFE5D4E0DEBFD3
:1002F000CDBF10E0A0E6B0E0E4E1F8E302C0059075
:100300000D92AC36B107D9F721E0ACE6B0E001C000
:100310001D92A535B207E1F70E940D1B0C94081C35
:100320000C94000016B80FB6F894A89581B58861B2
:1003300081BD11BC0FBE8D9A8091E80080648093CE
:10034000E80082E090E00E94E21B9DEF980F953755
:1003500008F081E6880F82B986B78F7D86BF86B7A1
:10036000856486BF789410922C011092E60010925A
:10037000E5000895E091EB00E83C08F472C08E2F90
:1003800090E0FC01E85CF109E833F10508F069C090
:10039000E65DFF4F0C94D31B80912C0145C00E9459
:1003A000601B089584E090E00E94E21B80930C01A2
:1003B00085E090E00E94E21B32C083E090E00E9462
:1003C000E21B32C010920C0187EB80930D018BE190
:1003D00080930E0110920F0184E0089581E08093D4
:1003E0000C018AEF1CC02091E5003091E6008AEFF5
:1003F00091E0821B930B90930C018AEF821B0FC03C
:100400008091E5009091E60008C010920C0180E216
:1004100006C08091E9009091EA0090930C018093CE
:100420000D0182E0089582E080930C0113C01092C8
:100430000C0110C08091E80086FB882780F9F4CF7A
:100440008091E80086FB222720F930E0220F331F3D
:1004500020930C0181E0089581E080930C0180934A
:100460000D0180E00895CF93C091ED0084E090E00D
:100470000E94E21BC8130BC0C091EE0085E090E023
:100480000E94E21B91E0C81390E0892F01C080E038
:10049000CF910895CF93DF938091E700882309F4EB
:1004A0008FC02091EC0030E090E0029728173907C8
:1004B00009F086C08091EB00883C08F47DC0813D46
:1004C00009F44DC040F4893CA9F18A3CD9F1883C3B
:1004D00009F076C01FC0873D09F44EC078F4863D10
:1004E00009F06EC08091ED009091EE009827892769
:1004F00098279093E6008093E50062C0833E09F45C
:100500004FC0853E09F05CC09091ED0096958091BA
:10051000E8004AC00E943302882309F451C0609168
:10052000EF0084E090E00E94FB1B6091F00085E00A
:1005300090E004C06091ED0083E090E0DF91CF9106
:100540000C94FB1B0E943302882309F439C060918C
:10055000EF00862F880F82B982E090E0EFCF0E94F3
:100560003302882369F198E088E10FB6F894A895E2
:1005700081BD0FBE91BDFFCF0E943302882301F1E0
:10058000C6E0D0E06FEFCE010E94EA1B219682E028
:10059000C030D807B9F71092E6001092E50010C0FD
:1005A0008091E8009091ED0090FB86F98093E8003F
:1005B00086FD06C0959804C0DF91CF910C94721B04
:1005C000DF91CF9108951F920F920FB60F921124D1
:1005D0002F933F934F935F936F937F938F939F934B
:1005E000AF93BF93EF93FF9381B1887F803AE9F196
:1005F00028F4803641F0803859F03CC0883AB1F098
:10060000883BD1F037C085EC86BF1092E70034C03C
:10061000E091E70081E08E0F8093E70093B1F0E076
:10062000E551FF4F90838032F0F424C010920B010B
:100630000E94BA018093E1008091E100811102C023
:1006400013B811C0E0910B0181E08E0F80930B0174
:10065000F0E0E45FFE4F808183B990910B018091BF
:10066000E100981738F085E806C085EC86BF0E9447
:100670004A0202C085EC86BFFF91EF91BF91AF9116
:100680009F918F917F916F915F914F913F912F91AA
:100690000F900FBE0F901F9018959091AC00409155
:1006A0009B00911105C04F3019F48093AD004FC1EC
:1006B0005091A4009517F8F02091A5009217D8F456
:1006C000E091AA00282F30E0609190007091910095
:1006D000EE2341F0E92FE51B02C0220F331FEA95FC
:1006E000E2F702C0660F771F262B372B309391005D
:1006F0002093900034C05091A600951780F120916E
:10070000A700921760F56091AA00282F30E06623B9
:10071000D1F0692F70E0493251F4903240F06052CC
:10072000710902C0220F331F6A95E2F778C0651B7A
:10073000710902C0220F331F6A95E2F760918E00A3
:1007400070918F0006C060918E0070918F00660FCF
:10075000771F262B372B30938F0020938E0042304B
:1007600031F04C3121F04C3309F049C01DC09830B4
:1007700060F420918A0030918B00220F331F282BC8
:1007800030938B0020938A000DC0983158F420914B
:10079000880030918900220F331F282B3093890065
:1007A00020938800423089F4282F30E06091860041
:1007B00070918700660F771F622B732B70938700F1
:1007C000609386004C31D9F403C04C3169F3CBCF30
:1007D00083EF890F8D3008F0BAC083EF890F02C014
:1007E000220F331F8A95E2F740918C0050918D00C3
:1007F000242B352B30938D0020938C00A8C04330E0
:10080000C9F42FEE290F243008F0A1C0282F30E0C2
:100810008FEE890F02C0220F331F8A95E2F74091B5
:10082000840050918500242B352B30938500209334
:1008300084008DC0453009F045C02CEE290F2430CE
:10084000A0F4282F30E048EF490F02C0220F331FD9
:100850004A95E2F740918E0050918F00242B352B62
:1008600030938F0020938E0014C028EE290F24307F
:1008700068F4282F4CEE490F01C0220F4A95EAF781
:1008800030917D00232B20937D0003C0903308F02E
:100890005EC0E92FE695E695E695492F4770F0E0B2
:1008A000E258FF4F21E030E001C0220F4A95EAF7FD
:1008B000882319F08081282B03C02095808128236C
:1008C000208345C0413309F042C0983499F521E0B6
:1008D00020937C002091900030919100432F40950F
:1008E00050E0B90177274617570729F41092900076
:1008F0002093910002C010927C0040918E00509194
:100900008F00252F209530E055272417350759F4FF
:100910004091900050919100242B352B3093910001
:100920002093900002C010927C0010928F001092D1
:100930008E0002C0983458F020918E0030918F00C4
:10094000220F331F282B30938F0020938E009F5F40
:100950009093AC00089596988E980895FC0180912C
:100960009A00882309F4D6C090919900973109F430
:10097000A0C070F49330D1F020F4923009F449C053
:10098000CBC0973009F4B4C0913109F492C0C4C00F
:100990009F3109F477C020F4983109F4B3C0BCC08A
:1009A000993259F1923309F45DC0B6C02091950097
:1009B000309196008091950090919600232F3327D7
:1009C0008095909599272817390709F0C5C080911F
:1009D00095009091960099279093960080939500AA
:1009E0008091930090919400209195003091960011
:1009F000982F8827822B932B76C0209195003091D9
:100A000096008091930090919400982F8827822BD4
:100A10006AC0809195009091960020919500309148
:100A20009600892F992720953095332782179307B1
:100A3000D1F180919700909198008E3E974871F483
:100A40008BE0809399008091950090919600892F7A
:100A50009927909398008093970025C088E380930E
:100A600099005AC020919500309196008091950090
:100A700090919600232F332799272817390709F0DB
:100A80006BC011C0809195009091960020919500C7
:100A900030919600892F992720953095332782171A
:100AA000930709F059C0809195009091960099277D
:100AB0001AC08091950090919600209195003091F8
:100AC00096008695817091E089272170332791E007
:100AD00029272170821709F43FC0809195009091D9
:100AE000960096958795909396008093950014C0F4
:100AF00080919700909198008F7D909398008093BB
:100B000097000AC080919500909196008D379105CD
:100B100019F422C080E0089580919900808380912B
:100B20009700909198009283818380919500909195
:100B300096009483838380919200858381E0109254
:100B400096001092950010929800109297001092C3
:100B5000920010929A0008951092990080E0EFCFD1
:100B60009093AF008093AE000895CF93DF93C0B30E
:100B7000C074E091AE00F091AF00309779F0D1E011
:100B8000C111D0E080917B0090E02D2F30E08217E2
:100B9000930721F08D2F0995D0937B0080919A00C7
:100BA0008111DDC480917A0081116BC08091790040
:100BB000C11102C08F5FD1C4882389F181E0809385
:100BC0007A00809378001092770010928F00109234
:100BD0008E00109291001092900010927D00109261
:100BE00085001092840010928D0010928C0010925B
:100BF00089001092880010928B0010928A00109247
:100C00008700109286008FEF8093AC0081E090E027
:100C1000909376008093750010927400A0C4809128
:100C20007200909173008F3F2FEF920709F497C4E1
:100C3000019690937300809372008091640090916C
:100C400065008F3F6FEF960709F489C40196909372
:100C5000650080936400883E924008F480C48091CF
:100C6000700090917100892B09F479C41092710081
:100C7000109270008FEF9FEF909365008093640057
:100C80006EC480917800882309F477C2809179003E
:100C9000CC2301F120917500309176002F5F3F4FFA
:100CA00030937600209375008951813120F02A3EDF
:100CB000310528F4E6C32C3B314008F4E2C38091AF
:100CC000990010927A00109279001092760010929A
:100CD0007500D7C31092AC0091EE980F9B3050F482
:100CE000209175003091760026503109253031056C
:100CF00008F4BEC190919900943171F490EB980F73
:100D00009F3650F420917500309176002A533109B6
:100D10002C36310508F4B2C192EA980F9435C0F42C
:100D20002091750030917600A9014E5251094C3244
:100D3000510508F4A0C1275131092731310540F48C
:100D400080919900843109F499C162EB72E0C5C1C8
:100D500020919900243161F4943550F4209175006C
:100D600030917600255031092830310508F486C1CC
:100D700099EF980F953050F42091750030917600DE
:100D8000235131092630310508F47BC191E5980FD4
:100D90009A3250F420917500309176002852310932
:100DA0002C30310508F470C197EE980F913150F452
:100DB000209175003091760024543140263A310557
:100DC00008F465C194EC980F903150F420917500AF
:100DD000309176002C5331092031310508F45AC185
:100DE00097ED980F983150F420917500309176006E
:100DF000295231092831310508F44FC198ED980F77
:100E0000973150F4209175003091760023513109CB
:100E10002D30310508F444C196ED980F9D3050F403
:100E20002091750030917600245131092830310528
:100E300008F439C15FEF580F543050F42091750019
:100E400030917600235631092A31310508F42EC13C
:100E500094EF980F943020F098EE980F973038F573
:100E60002091750030917600B9016C5071096430A1
:100E7000710528F06C50710967307105C0F430932A
:100E80006F0020936E0080518F3028F0205131097F
:100E90002F30310530F410926D0080E4809374009F
:100EA00003C081E080936D006AE272E016C19DEF9D
:100EB000980F953088F42091750030917600B90133
:100EC000675171096830710508F4F3C02950310980
:100ED0002530310508F4EDC04AEF480F453088F45D
:100EE0002091750030917600B9016C537109603121
:100EF000710508F4E1C02A5131092930310508F49F
:100F0000DBC026EF280F2D3050F420917500309172
:100F100076002E5031092031310508F4D0C02DED76
:100F2000280F2B3098F420917500309176002B50CB
:100F300031092630310550F410926F0010926E0086
:100F400081E080936D0068E072E0C7C0543050F4D7
:100F50002091750030917600205331092E303105F3
:100F600008F4B0C021EF280F2B3050F42091750009
:100F700030917600235031092530310508F4A5C0A1
:100F80002CEF280F263050F4209175003091760018
:100F90002E5031092B30310508F49AC02EEF280F5E
:100FA000233070F420917500309176002952310978
:100FB0002D30310528F410926D0064EC71E08DC085
:100FC0004530A0F42091750030917600A90141527E
:100FD00051094131510550F430936F0020936E0058
:100FE00081E080936D0063EB71E077C09A30C8F4C4
:100FF0002091750030917600A90147505109453084
:10100000510528F0475051094930510550F43093AB
:101010006F0020936E0081E080936D0062EA71E0C2
:101020005CC08950883050F4209175003091760072
:101030002C5031092930310508F44DC0943088F422
:1010400080917500909176000497049750F4109267
:101050006F0010926E0081E080936D006DE471E08E
:101060003CC010927A0010929B0060E070E035C0A6
:1010700064ED72E032C061EA72E02FC063EC72E0AE
:101080002CC06FE772E029C06CE371E026C061E913
:1010900071E023C060E972E020C06EE672E01DC01E
:1010A0006DE572E01AC06CE472E017C06BE372E0A9
:1010B00014C069E172E011C06FE671E00EC06EE528
:1010C00071E00BC067EF71E008C066EE71E005C02B
:1010D00065ED71E002C060E871E080917A008823DC
:1010E00031F041E150E08BE990E00E94D91B809102
:1010F000AB0090919B0080FF1FC09731A1F1993008
:1011000091F120919D00409175005091760030E062
:101110002417350750F4220F331F2417350728F002
:101120008695817091E089271CC090916D00911186
:101130001AC08695817015C0983049F48091750069
:10114000909176004797089758F481E00AC09E3145
:1011500051F48091750090917600CC974097A8F358
:1011600080E00E944D0381E0809379001092760028
:10117000109275001092780084C1809177008823C6
:1011800009F46EC1CC2309F4EFC1209175003091B0
:1011900076002F5F3F4F309376002093750090913B
:1011A000A8008091AC0098130CC04091A900413078
:1011B00041F44091AB0040FF69C12115310509F0B0
:1011C00083C140919B00413041F52C30310508F43A
:1011D000C3C08B3008F4C0C091E0980F9093A80072
:1011E000282F30E02B503109322F222740919000D8
:1011F00050919100242B352B309391002093900037
:101200009091A600890F8F5F8093A7008AE090E0FD
:101210009093760080937500A7C14F3009F058C0B5
:101220005091A900511198C02632310518F19BEF59
:10123000980F9230F8F481E08093A90088E18093C0
:101240009B0087E08093A8001092A4001092A50054
:101250001092A6008093A70080918E0090918F003D
:10126000880F991F2091AD00822B90938F0080935F
:101270008E007AC140919F0050E0440F551F241703
:10128000350728F0883008F4FCC08AE034C08A3082
:1012900008F41CC180E180939B0089E08093A40046
:1012A00091E19093A50091E09093A6008093A70010
:1012B00080918E0090918F009C0122273370232B08
:1012C00009F404C190939000109291009927ABC04B
:1012D000473109F041C05091A90051113DC04091E2
:1012E0009F0050E0440F551F2417350738F08F300A
:1012F00008F4C7C081E18093A80047C0813108F499
:10130000E5C081E180939B001092A4008BE0809364
:10131000A5008093A60086E18093A70080918E00AF
:1013200090918F002091900030919100220F331FF7
:10133000220F331FAC01C6E056954795CA95E1F7D9
:10134000242B352B30939100209390008F73992795
:1013500020916D00822B67C05091AB0050FF19C0E7
:1013600060919F0070E0660F771F2617370788F09F
:10137000E82FF0E0692F70E062507109E617F70777
:1013800044F05091A900511104C081E08093A9005C
:10139000EBC02A3E310508F499C0682F70E0292F70
:1013A00030E0215031096217730741F49091A90090
:1013B000911104C08F5F8093AC0088C0423009F463
:1013C0008DC24C31A9F5882309F48AC2803209F014
:1013D000B3C291E09093A90092E090939B00809318
:1013E000A80080918C0090918D009C01322F2227C3
:1013F0003295330F307E4091900050919100242B14
:10140000352B309391002093900040918E0020E086
:1014100030E0342F330F330FE3E096958795EA954C
:10142000E1F7822B932B90938F0080938E004EC018
:10143000493249F010927A001092790010927600A9
:10144000109275008CC08032A9F79AE090939B00AF
:1014500090E19093A6008093A7008093A80036C0E7
:10146000C11106C0809179008F5F8093790009C017
:1014700081E08093770081E090E090937600809304
:10148000750080917A00811121C069C02F32310529
:1014900008F497CE809179009091A000891750F2BE
:1014A0009091A100981730F280919B008C3361F4E9
:1014B000809186009091870090938F0080938E009A
:1014C00010929100109290001092A9009091A800A3
:1014D0008091AC00981343C08091A90081113FC056
:1014E000609160007091610020918E0030918F00BA
:1014F0006217730709F0A4C2409172005091730003
:10150000403B544008F09CC280916C008F5F8093F8
:101510006C0080919B00813009F095C240916C0075
:101520004150423008F098C210927300109272003D
:1015300080919A0081117BC310927A0010928F00E3
:1015400010928E0010927900109276001092750021
:1015500080919900843119F487E880937900809113
:101560009A00DF91CF9108958091AB0080FF9FC0DA
:10157000C091790090919D009C1708F04EC0909109
:101580009B009930B1F49091AC00943091F42C2FE1
:1015900030E02C3031056CF08091A800843229F4C1
:1015A00081E00E944D0381E035C080E00E944D0340
:1015B00021C0D1E0869581708D270E944D038091D6
:1015C0009B008930E9F48091AC008430C9F48C2F01
:1015D00090E00C97ACF081E00E944D0380919F0059
:1015E00090E0880F991F2091750030917600821746
:1015F000930718F410926D0051C0D0936D004EC047
:101600008091AB00869581700E944D038091AB0064
:101610008695817080936D0041C080919C00C817B1
:10162000B8F180919F0040916E0050916F0090E062
:1016300020916D008417950758F4880F991F84171F
:10164000950730F081E0211180E080936D0001C0AA
:10165000822F90919B009930C1F49091AC00913011
:10166000A1F4813091F494E29093A80025E02093B6
:10167000A40024E12093A50025E12093A6009093E7
:10168000A70010929100109290000E944D0306C096
:1016900010927A0010927600109275008091750079
:1016A0009091760090936F0080936E0013C190919B
:1016B0009B00933039F52091AC00203109F08EC0A9
:1016C000809179008550883038F58091750090912F
:1016D0007600AC014C5351094031510520F4109271
:1016E000770081E14DC039E230939B002093A60042
:1016F00020E32093A7002093A8000F97409708F0BD
:10170000E4C0E5C09C3179F09E3009F067C080915B
:1017100079008250833028F110927A00109276007E
:1017200010927500D9C08091AC00883009F056C085
:1017300020917500309176002E5231092C323105FE
:1017400008F04CC09BE190939B001092A400809302
:10175000A5008093A60080E18093A7008093A80055
:10176000B9C02091AC008091750090917600213035
:1017700051F4825D9109869778F61092770082E0A5
:101780008093AC00A9C0233141F4885A910988970D
:1017900018F61092770084E1F3CF9C012E5731099F
:1017A0002F31310538F481E00E944D0381E08093B0
:1017B0006D0090C09C01295231092D30310530F463
:1017C00080E00E944D0310926D0084C08355910902
:1017D000469708F0A1CF80916D007AC08091790082
:1017E00020919C008217A8F020919D00281788F076
:1017F000409175005091760020919E0030E0421794
:10180000530738F020919F0030E02417350708F087
:101810005EC02091A0008217A8F02091A100281797
:1018200088F040917500509176002091A20030E040
:101830004217530738F02091A30030E024173507F2
:1018400008F043C09C3109F067CF9CEF980F9730A8
:1018500048F42091750030917600255031092930E7
:10186000310560F089508C3008F056CF80917500BA
:10187000909176000B970D9708F04ECF8CE38093F4
:101880009B0084E08093A00085E08093A2008DE01F
:101890008093A10089E080939C008BE080939E0060
:1018A00087E180939D001092A4001092A5001092F1
:1018B000A60088E08093A7008093A800809175001F
:1018C000909176000597099710F480E001C081E0BF
:1018D0000E944D031092770081E0C7CD81116DC049
:1018E00080917200909173008830974010F581E0EC
:1018F0008093A90082E080939B001092A8008091C1
:101900006200909163009093910080939000809189
:1019100060009091610090938F0080938E00809181
:101920009200816080939200109273001092720076
:10193000CDCD10929A00CACD8C31A9F491E090934C
:10194000A90098E290939B008093A80080918A0060
:1019500090918B00909391008093900080918800EB
:101960009091890060CD90EF980F923008F062CD91
:1019700091E09093A90094E190939B008093A8003C
:10198000809190009091910020918C0040E050E077
:10199000522F550F9C0164E0369527956A95E1F723
:1019A000242B352B30938F0020938E008F70992736
:1019B000909391008093900089CD90EF980F923092
:1019C000F8F421E02093A90094E190939B00809388
:1019D000A8008091900090919100AC01F4E05695A0
:1019E0004795FA95E1F750938F0040938E008F70E2
:1019F0009927909391008093900020937A0066CD70
:101A000094EE980F923008F015CD91E09093A900D4
:101A100028E220939B008093A800209188003091B9
:101A2000890030938F0020938E0020918A0030919E
:101A30008B00309391002093900090937A0046CDD4
:101A400010926C0066CD8D3029F440916C0040FD01
:101A50006BCD02C08732C9F341E040939A008830D1
:101A6000A1F5A901409550955370E0917000F09157
:101A700071004E175F07B9F450938F0040938E00AA
:101A800010927100109270008093990080919000E4
:101A900090919100909398008093970050939600B6
:101AA0004093950045CD20FD09C0309371002093EF
:101AB0007000109265001092640004C010927100D2
:101AC0001092700010929A0033CD8F3029F42F3F7E
:101AD000314009F07DC0F6CF803169F4409190002B
:101AE000509191004F3F510509F072C02E3F3105D2
:101AF00009F06EC0E7CF823001F5911169C02091E5
:101B00007200309173002830374008F05BC020919C
:101B100062003091630030939100209390007093A5
:101B20008F0060938E00909192009160909392004C
:101B300010927300109272004BC0853079F530918D
:101B40007E0090917F00E0918000232F2F703295CE
:101B50003F703227292F2F70232792959F702927B6
:101B6000022E000C330B4E2F4F7050E02417350718
:101B700011F010929A00909181009E27209182008E
:101B8000922720918300921310929A002091920044
:101B900090917D00922B909392001AC08133A9F40A
:101BA000432F409550E033274217530729F45093B1
:101BB0008F0040938E0002C010927C0090917C00B8
:101BC000911106C010929A0003C0893009F45AC0DE
:101BD000809399002091900030919100309398006B
:101BE00020939700823029F43093630020936200A1
:101BF0000DC0873059F42091740080918E0090912F
:101C00008F00822B90938F0080938E0080918E00A6
:101C100090918F009093960080939500809184001E
:101C200090918500909394008093930081CC2091B3
:101C30008E0030918F00409190005091910062177A
:101C4000730799F48091620090916300841795075F
:101C500061F480917200909173008A3C984028F45E
:101C60008091920081608093920050936300409332
:101C70006200309361002093600010927300109214
:101C800072005ACC943209F0A3CF95E19093990059
:101C9000A1CF9C0180E090E0662341F0880F991F5E
:101CA00020FD8160369527956150F6CF089580918B
:101CB000DF0081110EC085B5886185BDE091D0003F
:101CC000F091D100309711F081E0099581E0809387
:101CD000DF0008958091DF00882371F085B58F7E45
:101CE00085BD9798E091D000F091D100309711F028
:101CF00080E009951092DF00089597988F9A88E008
:101D000085BD85B5816085BD85EA83BD08959093C5
:101D1000D1008093D0000895FF920F931F93CF932B
:101D2000DF93EC01662329F08091E0008111FCCF64
:101D300004C08091E000811114C488818093DE008A
:101D4000FD808F2D8F708093D200E091DE004E2FAA
:101D500050E0FA013197EC33F10508F0FFC3EE597A
:101D6000FF4F0C94D31B8A818093CF00843018F0EE
:101D70001DEF180F01C010E06FE08B819C810E9465
:101D8000490E9C0120783F77220F232F221F330B0F
:101D900031952093D300880F8093D400112309F448
:101DA000DAC365E089819A810E94490E2091D400AE
:101DB00084FB992790F9922B9093D4008295807F91
:101DC000C2C320E030E039818B819C81E901C82BBE
:101DD000D92B60E18EEE97E80E94490E182F092F4B
:101DE00060E1CE010E94490E22E02093DE002AC06D
:101DF000F4FE06C08FEF8093DE001092D300ABC3D9
:101E000060E189819A810E94490E182F092F60E1B3
:101E10008B819C810E94490E0093D3001093D400C3
:101E20009093D50090959093D60095C360E18981F9
:101E30009A810E94490E182F092F60E18B819C81A5
:101E40000E94490E0093D3001093D4009093D500C4
:101E5000ACC268E089819A810E94490E182F68E01F
:101E60008B819C810E94490E3FC36DE089819A81DC
:101E70000E94490E8C0168E08B819C810E94490E72
:101E80009801207E3F71A5E036952795AA95E1F748
:101E90002093D300980120953095A90144275C71C7
:101EA000452F46954695502F550F550F550F452BED
:101EB0004093D4002C7F337036952795369527951F
:101EC0002093D50000950295000F000F007C9C0127
:101ED0002C7F33273695279536952795022B00932F
:101EE000D6009C01209530952C7F33273695279579
:101EF00036952795982F9295990F990F907C292BBD
:101F00002093D70080958295880F880F807CD9C058
:101F10008B811FC38B819C8129812093D300909357
:101F2000D4008093D5009C0122273F70292F229551
:101F30002F70280F230F807F9927F4E096958795BF
:101F4000FA95E1F7820F8295807F2FC260E1898147
:101F50009A810E94490E182F092F60E18B819C8184
:101F60000E94490E0093D3001093D400382F307F85
:101F7000292F22952F70232B2093D5009C012227F7
:101F80003F708827907F80959095492F42954F709C
:101F9000C90174E0969587957A95E1F7842B809333
:101FA000D60020953095E4E036952795EA95E1F73F
:101FB000207F2093D700CFC260E189819A810E945F
:101FC000490E182F092F60E18B819C810E94490ED8
:101FD0000093D3001093D4009093D50090959093E4
:101FE000D6008093D70080956CC06CE089819A817F
:101FF0000E94490E8C016CE08B819C810E94490EED
:102000009C01207F3F7064E0369527956A95E1F743
:102010002093D300980122273F708295807F832BE5
:102020008093D4000093D50096C260E189819A81A3
:102030000E94490E8C0160E18B819C810E94490EB7
:10204000EC018F2D90E064E024E0969587952A9529
:10205000E1F70E94490E1093D3000093D400202F83
:102060002F70912F92959F7092279801207F332790
:1020700044E0369527954A95E1F7292700271F70F8
:1020800021272295207F9C2F9F70292B2093D500FC
:102090008295807F9D2F92959F70892B8093D6008B
:1020A000C07FDF7054E0D695C7955A95E1F7C0938D
:1020B000D7002091D5008091D6009091D70082273B
:1020C00089278093D80047C289819A814B812AE46D
:1020D0002093D30025E72093D40023EC2093D50050
:1020E00024E62093D6002BE92093D7009C012227D9
:1020F000209530953093D8009093D900982F9095E3
:102100009093DA008093DB00842F80958093DC002D
:102110004093DD0020C28091CE00811102C080E892
:1021200001C080E08093CE004B815C812981922F99
:102130009295907F9A012C73332736952795369583
:102140002795292B822B8093D3004295440F440F6F
:10215000407CE4C08091CD00811102C020E401C028
:1021600020E02093CD004B815C8189818F70382FD6
:10217000330F330FCA0180739927C4E09695879572
:10218000CA95E1F7832B8068C4C08091CC0081118F
:1021900002C040E401C040E04093CC009B8196FD2A
:1021A00002C080E801C080E029812F71220F95FBD9
:1021B000332730F9232B842B822B8093D300990F64
:1021C000990F990FB6C08091CB00811102C098E0A1
:1021D00001C090E09093CB0049815A819A01207E02
:1021E0003327A5E036952795AA95E1F72068922B2D
:1021F0009093D3002B813C81C901807E9927B5E063
:1022000096958795BA95E1F7440F440F440F842BB8
:102210008093D400220F220F220F2093D5009BC160
:102220008091CB00811102C028E001C020E0209302
:10223000CB0089819A81AC0144275073352F3295A8
:102240003F70306E3093D3009F70E4E09695879591
:10225000EA95E1F78093D4008B819C813981329596
:10226000307F492F42954F70342B232B2093D5007C
:10227000807F9F70F4E096958795FA95E1F78093BB
:10228000D6008B818295807F8093D70064C18B813B
:102290009C812981422F440F440F440F9C012078D8
:1022A0003370220F232F221F330B3195242B2093C1
:1022B000D300282F220F2093D4009C012095309525
:1022C00020783370220F232F221F330B31959981F1
:1022D000990F990F990F292B2093D5008095880F7E
:1022E00064C08091CA00811102C088E001C080E012
:1022F0008093CA004B815C812981922F9295907FB7
:102300009A012077332754E0369527955A95E1F7BF
:10231000292B822B8093D3004295407F4093D40099
:102320001AC160E18B819C810E94490E9093D30079
:1023300090959093D4000FC18B819C819C01369520
:102340002795369527952093D3008295880F880F7F
:10235000807CDAC08B819C81292F26952695269535
:102360002093D3009C0193E0369527959A95E1F749
:102370002093D4008295880F807EE5C069E08B8130
:102380009C810E94490E2FEF2093D30020EC2093D4
:10239000D4009C0136952795369527952068209383
:1023A000D5008295880F880F807C8093D600D3C09B
:1023B0008B819C819C01220F232F221F330B31958F
:1023C0002093D300880FA0C067E08DE790E00E94C3
:1023D000490E8C0167E08B819C810E94490E169505
:1023E000102F002717950795802B912B282F220F50
:1023F00021602093D300D6E096958795DA95E1F792
:1024000083C068E089819A810E94490E8C0168E04E
:102410008B819C810E94490E2FEB2093D3002FEFDC
:102420002093D40020E82093D5009C013695279571
:1024300020682093D6008795882787959801369540
:102440002795822B8093D700079500270795009347
:10245000D80081C089819A819C013770E3E036956C
:102460002795EA95E1F72093D3002B813C81A901C0
:10247000F5E056954795FA95E1F74F718295880FEB
:10248000807E842B8093D400822F880F880F880F42
:1024900020FF02C090E001C094E0892B54C0298144
:1024A0003A81C9019170969587958093D3008B816D
:1024B000982F20FB97F99093D40080FF02C080E012
:1024C00042C080E840C064E089819A810E94490E40
:1024D000182F6CE08B819C810E94490E9C01222761
:1024E0003F701295107F132B1093D3000DC08B817A
:1024F0008295880F880F807C2CC060E18B819C8145
:102500000E94490E9093D3008093D40024C0298167
:102510003A81C901969587959695879580688093AD
:10252000D3008B819C812295220F220F207CAC014D
:102530005695479556954795242B2093D400829520
:10254000880F880F807C8093D50005C08B81880F11
:10255000880F8093D30081E08093E0008091E000B9
:1025600001C080E0DF91CF911F910F91FF900895FE
:102570008091E000882311F40C94F71A20916A00EE
:102580002F3F09F02AC580916900882309F425C5E9
:102590008091C900882309F44AC02091C700309176
:1025A000C8002F5F3F4F3093C8002093C700409171
:1025B000C5005091C6002417350710F40C94F71A83
:1025C0001092C8001092C7009091DE00983029F454
:1025D00080E180936A008FE127C09091DE009F30F8
:1025E00021F490936A008AE11FC09091DE00983137
:1025F00029F487E080936A008FE016C09091DE0096
:10260000903109F0EAC490E001962091C30030E0D7
:10261000821793072CF487E180936A0089E204C053
:102620008FEF80936A0081E18093C400D6C48091CB
:10263000C1009091C2004091BF005091C00084172A
:10264000950730F401969093C2008093C100CFC7E4
:102650008091BE00882329F01092E0001092BE0005
:10266000C6C78091D2008F3019F08093BD0002C0A0
:102670002093BD001092C2001092C1001092BC00C5
:102680001092BB001092BA008091DE00853109F4EF
:1026900037C308F070C0893009F41CC3A8F5843032
:1026A00009F43AC248F4823009F471C108F0EBC170
:1026B000813009F443C18FC4863009F497C208F40D
:1026C0004EC2873009F4E9C2883009F084C4109200
:1026D000B9001092B8001092B70085E08093B60060
:1026E0009AE19093B5008093B4008AE08093B300A0
:1026F00081E08093B2008FE08093C40082E08093F9
:10270000C30083EA92E046C38E3009F471C338F502
:102710008C3009F487C208F042C38A3009F05BC4E8
:1027200084E48093B90083E490E09093B8008093B0
:10273000B70088E08093B60096E19093B50080934F
:10274000B40087E08093B30081E08093B20090E210
:102750009093C4008093C30081EC92E044C3803125
:1027600009F487C308F46DC3813109F4A4C384312B
:1027700009F4D9C330C4823209F475C208F077C0B5
:102780008B3109F42BC178F5873109F4A7C308F41C
:10279000F2C3883109F01FC488E08093B90027E2B2
:1027A00030E03093B8002093B7008093680088E051
:1027B00090E090936700809366001092B20087E0EB
:1027C0008093C40082E08093C3008DE491E09093F5
:1027D000C6008093C50086EE96E09093C00080937B
:1027E000BF0087ECF6C38E3109F4A0C2E0F48C314F
:1027F00009F0F1C387E88093B90083E490E09093F7
:10280000B8008093B70088E08093B60098E1909379
:10281000B5008093B40087E08093B30081E080939B
:10282000B2009AE2F3C08F3109F498C2803209F005
:10283000D2C324E02093B90082E090E09093B800E6
:102840008093B700209368009093670080936600A0
:102850001092B20082E18093C40081E08093C300B3
:102860001092C6001092C5008EEE92E0ADC3813387
:1028700009F494C108F03FC0883209F4EBC0F8F4C1
:10288000873209F0A8C387E08093B90022E130E0E5
:102890003093B8002093B70093E19093B60096E090
:1028A0009093B5008093B40082E18093B30081E0FF
:1028B0008093B2008AE08093C40082E090C28932A3
:1028C00009F404C18B3209F086C383EC8093B9000C
:1028D0008DE290E09093B8008093B70086E08093FB
:1028E000C4008FE08093B6009CE29093B500809383
:1028F000B4008EE05CC3883309F449C0C8F4843363
:1029000009F069C38DE08093B9008FE090E0909367
:10291000B8008093B70080E18093C40086E0809384
:10292000B6009CE09093B5008093B40085E039C375
:102930008C3309F476C08F3F51F14DC394E29093EC
:10294000B90028E030E03093B8002093B70092E15E
:102950009093B60098E09093B50029E02093B400DE
:102960009093B3001092B2009091CF00945F909337
:10297000C4009091B100911101C083E08093C30025
:1029800087E791E09093C6008093C50029C187E84E
:102990008093B9008091B100811104C08091DE0064
:1029A0008F3F49F481E290E09093B8008093B700A4
:1029B0001092C40009C083E490E09093B800809323
:1029C000B70080E28093C40088E08093B60098E16D
:1029D0009093B5008093B40087E0E3C287E88093CA
:1029E000B90083E490E09093B8008093B70088E04A
:1029F0008093B60098E19093B5008093B40087E08F
:102A00008093B30081E08093B20091E19093C40081
:102A10008093C3001092C6001092C50088E592E032
:102A2000D3C284E88093B9008DE390E09093B8001E
:102A30008093B7008FE08093B60080E18093B5006B
:102A400087E08093B40098E09093B30081E0809396
:102A5000B200DCCF87E88093B90083E490E09093E4
:102A6000B8008093B70088E08093B60098E1909317
:102A7000B5008093B40087E08093B30081E0809339
:102A8000B2009CE1C3CF84E48093B90083E490E07A
:102A90009093B8008093B70088E08093B60096E1E9
:102AA0009093B5008093B40087E08093B30081E0F9
:102AB0008093B20095E29093C4008093C30010927B
:102AC000C6001092C50087E791E07EC284E480933F
:102AD000B90083E490E09093B8008093B70088E059
:102AE0008093B60096E19093B5008093B40087E0A0
:102AF0008093B30081E08093B20080E38093C400B0
:102B000082E08093C3008BE490E09093C6008093B2
:102B1000C50081EC92E058C284E38093B90083E35E
:102B200090E09093B8008093B7008DE08093B6005A
:102B300096E29093B5008093B4008CE08093B3004C
:102B400081E08093B20098E19093C4008093C30029
:102B50001092C6001092C50088E592E0DEC183E3C2
:102B60008093B90088E190E09093B8008093B7001B
:102B700086E08093B60092E19093B5008093B40014
:102B800085E08093B30081E08093B20090E390935E
:102B9000C4008093C30086E594E025C180E3809360
:102BA000B90086E190E09093B8008093B70086E08A
:102BB0008093B60091E19093B5008093B40085E0D6
:102BC0008093B30081E08093B20098E59093C400B5
:102BD0008093C3001092C6001092C50088E592E071
:102BE0009093C0008093BF0085E9F3C182E0809399
:102BF000B9002EE630E03093B8002093B700809300
:102C0000B6009EE69093B5008093B40089E480936B
:102C1000B30081E08093B2009AE09093C400809367
:102C2000C3001AC092E09093B90026E330E03093DD
:102C3000B8002093B7009093B6002EE62093B5001D
:102C40009093B40099E49093B30091E09093B20014
:102C50008093C4009093C3001092C6001092C500E8
:102C600083EA92E0B1C189E08093B90026E130E0C7
:102C70003093B8002093B7008093B60096E190930C
:102C8000B5008093B40088E08093B30081E0809326
:102C9000B2009FE09093C40065C18DE08093B900BD
:102CA0002DE030E03093B8002093B70080936800A7
:102CB00030936700209366001092B2008093C400A6
:102CC00081E08093C3001092C6001092C50086E395
:102CD00095E023C188E28093B9008CE090E0909366
:102CE000B8008093B70087E08093680087E090E0A9
:102CF00090936700809366001092B20085E102C154
:102D000088E28093B9008CE090E09093B8008093C3
:102D1000B70087E08093680087E090E090936700B9
:102D2000809366001092B20084E2ECC01092B90069
:102D30001092B8001092B70088E08093B60093E438
:102D40009093B5008093B4008DE18093B30081E04F
:102D50008093B2009CE09093C40041C090E19093B6
:102D6000B90024E130E03093B8002093B70088E048
:102D70008093B6002093B5008093B40086E08093E2
:102D8000B30081E08093B2009093C4008093C300AD
:102D900088E592E09093C6008093C500BEC084E1B0
:102DA0008093B90024E030E03093B8002093B7005E
:102DB0008093B60084E08093B50088E08093B400EF
:102DC00083E18093B30081E08093B2008AE0809336
:102DD000C40082E08093C3008DE092E0DBCF80935B
:102DE000C3008DE092E09093C6008093C500ECC0D4
:102DF00083E08093B9002EE230E03093B800209356
:102E0000B7008093B6009CE89093B5008093B4001F
:102E10008EE28093B30081E08093B20094E19093BE
:102E2000C4008093C3001092C6001092C50083EACC
:102E300092E09093C0008093BF001092B0008CE0AD
:102E4000C8C088E08093B90027E230E03093B80032
:102E50002093B7008093680088E090E0909367002B
:102E6000809366001092B2008AE08093C40082E0F2
:102E700017C088E08093B90027E230E03093B800B3
:102E80002093B7008093680088E090E090936700FB
:102E9000809366001092B20081E18093C40083E0C9
:102EA0008093C3008CE291E09093C6008093C500AC
:102EB00086EE96E089C024E02093B90084E090E09B
:102EC0009093B8008093B7002093680090936700B8
:102ED000809366001092B20086E114C084E0809373
:102EE000B90028E030E03093B8002093B700809319
:102EF000680084E090E090936700809366001092F1
:102F0000B20081E18093C40081E08093C3001092FD
:102F1000C6001092C50083EA92E09093C0008093AF
:102F2000BF0085EA56C08091B100811110926A00FD
:102F300087E88093B90083E490E09093B800809391
:102F4000B70080E18093C40088E08093B60098E1E8
:102F50009093B5008093B40087E08093B30081E044
:102F60008093B2008093C3001092C6001092C500F7
:102F70008AE491E029C081E28093B90087E991E079
:102F80009093B8008093B70082E08093C40088E0FB
:102F90008093B60094E39093B5008093B40086E1EB
:102FA00006C08093B30081E08093B20031CD80935E
:102FB000B30081E08093B2008093C3001092C600FA
:102FC0001092C50084E893E09093C0008093BF0006
:102FD0008CE983BD02C01092E0008091E00088235C
:102FE00009F4EBC2109269008091DE00893130F55E
:102FF000873108F0A1C18F3098F48C3008F044C0BC
:10300000873009F499C120F4813008F4D4C23CC05F
:10301000893009F491C1C0F18A3009F0CCC234C0C2
:10302000843191F120F4823108F486C1C4C2853123
:1030300009F482C1863109F0BEC226C08A3290F4FA
:10304000873210F5803238F48E31F0F48B518230B3
:1030500008F0B1C219C0803209F46EC1823209F0A1
:10306000AAC212C0843381F040F48F3269F08133F8
:1030700059F08B3209F09FC207C08C3329F08F3F83
:1030800019F0883309F097C22091BC00211117C1B3
:1030900030916A003F3F49F48091B9008093680005
:1030A0008091B7009091B80006C18091C400381794
:1030B00008F0EDC08091DE00833009F046C0303169
:1030C000D0F488E080936800E32FE695E695E695D6
:1030D000F0E0ED52FF4F608170E0832F90E080952B
:1030E000909587709927AB0102C0559547958A95B1
:1030F000E2F7CA0125C0303131F488E080936800DE
:1031000083E490E0D8C0353208F0D9C08FEF830F48
:1031100098E090936800E82FE695E695E695F0E054
:10312000ED52FF4F408150E090E080959095877080
:103130009927BA0102C0759567958A95E2F7CB0188
:1031400080FF2BC086E190E0B6C08091DE008B311D
:1031500051F5383040F488E0809368006091D300E6
:1031600070E0832F0DC0383041F2313108F0A7C034
:1031700088E0809368006091D40070E08FEF830F47
:1031800090E08095909587709927AB0102C0559586
:1031900047958A95E2F740FD03C087E090E08BC039
:1031A00088E190E088C08091DE008E3009F04CC04C
:1031B000311106C083E0809368008EE290E07BC00E
:1031C000313031F483E08093680089EE90E073C081
:1031D000323081F3333131F483E0809368008BEB3C
:1031E00090E069C0343108F06AC0E32FE695E695B7
:1031F000E695F0E0ED52FF4F9081892F90E0432F4C
:1032000050E0409550954770552702C09595879599
:103210004A95E2F78170992733E030936800309146
:10322000B000381303C08DE590E045C0009719F455
:103230004EE250E002C04CE850E0509367004093EB
:1032400066008093B0003BC0E32FE695E695E695D7
:10325000F0E0ED52FF4F408150E0832F90E08095E9
:10326000909587709927BA0102C0759567958A95E0
:10327000E2F760FF07C08091B600809368008091FC
:10328000B50015C08091B400809368000EC0809195
:10329000B2008823A1F08091B400809368009091DF
:1032A000C9008091C300981720F48091B30090E08A
:1032B00002C08FEF90E0909367008093660080914A
:1032C0006800281718F4211170C16DC18091BA00EF
:1032D0009091BB00209166003091670082179307A0
:1032E00008F44FC180916A008F5F80936A0090E07C
:1032F0004091C4002091B20030E0240F311D8217AC
:1033000093079CF08FEF80936A008091C9008F5FD4
:103310008093C9009091C300891304C01092E0000B
:103320001092C90081E0809369001092BC00109255
:10333000BB001092BA0041C19091BC00809168001E
:10334000981354C02091BA003091BB008091660060
:10335000909167002817390709F048C080916A00EA
:103360008F5F80936A009091C4008917C8F18FEF36
:1033700080936A008091DE008F3041F08091DE0002
:10338000883121F08091DE00803119F52091C9004B
:103390002F5F2093C9008091B100882331F046EE61
:1033A00056E05093C6004093C5003091BD00909107
:1033B000C300831738F49F5F9093C3008F5F80939F
:1033C000B10009C0291307C01092E0001092C90093
:1033D00002C01092E00081E0809369000E946A0EB2
:1033E0001092BC001092BB001092BA00809169004C
:1033F0008111E3C08091DE0020916A008F3049F096
:103400008091DE00883129F08091DE00803109F062
:1034100041C02F3FA1F08091DE008F3011F42F309A
:1034200071F08091DE00883111F4273041F08091F5
:10343000DE00803189F4273111F02F3269F4809158
:10344000B900809368008091B7009091B800909384
:103450006700809366007FC088E08093680088E002
:1034600090E09093670080936600E22FE695E695E2
:10347000E695F0E0ED52FF4F808190E030E020953E
:1034800030952770332702C0959587952A95E2F7E6
:1034900081705FC08091DE002F3FD1F4893021F030
:1034A0008091DE00853169F48091B90080936800D5
:1034B0008091B7009091B800909367008093660068
:1034C00041C08091DE008032E9F510926A003AC076
:1034D000893021F08091DE008531F9F487E0809316
:1034E000680087E090E09093670080936600809189
:1034F000DE00893021F4243081F48DE003C02430D3
:1035000021F484E18093680002C0253031F48DE01D
:1035100090E09093670080936600E22FE695E69531
:10352000E695F0E0ED52FF4F808190E030E020958D
:1035300030952770332702C0959587952A95E2F735
:10354000817001C081E09091DE00973011F491E02C
:103550008927882359F08091BC00909168008917D1
:1035600000F18091BA009091BB000BC08091BA002D
:103570009091BB00209166003091670082179307FD
:1035800070F4892B11F40E946A0E8091BA00909118
:10359000BB0001969093BB008093BA000EC080914F
:1035A000BC00811102C00E94570E8091BC008F5F49
:1035B0008093BC0002C01092E0008091E000811175
:1035C00016C08091B1009091BD00891738F48F5FCB
:1035D0008093B10081E08093E00009C081E0809396
:1035E000E0008093BE001092BD001092B100809167
:1035F000E0000895882331F08091E80086FF02C042
:10360000959A0895959808958FE193E09BBD8ABDA2
:1036100089E08EBD80E189BF0895CF93DF9300D00C
:1036200000D000D0CDB7DEB70E949201959A2FEF5F
:103630008EE994E2215080409040E1F700C0000004
:103640000E94AB040E947D0E0E94041B95988AEF95
:103650009AE10E94B0058AEF9AE10E94870ECE019E
:1036600001960E94AE048823D1F380912C018A3107
:1036700008F080E0E82FF0E0E95CFE4F998190834C
:103680009A812B81E1E0E80FF0E0E95CFE4F2083B6
:10369000E2E0E80FF0E0E95CFE4F90839C812D8131
:1036A000E3E0E80FF0E0E95CFE4F2083E4E0E80FA0
:1036B000F0E0E95CFE4F90838B5F80932C01CFCFCD
:1036C00020912C01E7E3F1E0ACE0B1E090E081E093
:1036D000890F921721F091919D93982FF8CF109216
:1036E0002C010895CF93DF9300D000D000D0CDB748
:1036F000DEB78091EB00811125C08091ED008983B8
:103700008091EE0090E0982F88272091EF00820FA3
:10371000911D9B838A838091F00090E0982F8827E9
:103720002091F100820F911D9D838C831E8260E0A9
:10373000CE0101960E948C0E8FE295E70197F1F77A
:1037400000C0000026960FB6F894DEBF0FBECDBFB6
:10375000DF91CF9108951F920F920FB60F9211240F
:103760002F933F934F935F936F937F938F939F9389
:10377000AF93BF93EF93FF930E94B812811102C0E1
:103780000E94B505FF91EF91BF91AF919F918F91ED
:103790007F916F915F914F913F912F910F900FBE4D
:1037A0000F901F901895EE0FFF1F0590F491E02DDC
:1037B0000994FB01DC0102C005900D92415050407C
:1037C000D8F70895E199FECF9FBB8EBBE09A992769
:1037D0008DB30895262FE199FECF9FBB8EBBE09A53
:1037E00001970DB2021631F02DBB0FB6F894E29A94
:1037F000E19A0FBE0895262FE199FECF9FBB8EBBA5
:103800002DBB0FB6F894E29AE19A0FBE0196089587
:04381000F894FFCF5A
:0C381400FFFFFFFFFFFFFF00FF01FF00B0
:00000001FF
